{
  "_format": "hh-sol-artifact-1",
  "contractName": "TwabRewards",
  "sourceName": "contracts/periphery/TwabRewards.sol",
  "abi": [
    {
      "inputs": [],
      "stateMutability": "nonpayable",
      "type": "constructor"
    },
    {
      "anonymous": false,
      "inputs": [
        {
          "indexed": false,
          "internalType": "uint8",
          "name": "version",
          "type": "uint8"
        }
      ],
      "name": "Initialized",
      "type": "event"
    },
    {
      "anonymous": false,
      "inputs": [
        {
          "indexed": true,
          "internalType": "uint256",
          "name": "promotionId",
          "type": "uint256"
        }
      ],
      "name": "PromotionCreated",
      "type": "event"
    },
    {
      "anonymous": false,
      "inputs": [
        {
          "indexed": true,
          "internalType": "uint256",
          "name": "promotionId",
          "type": "uint256"
        },
        {
          "indexed": true,
          "internalType": "address",
          "name": "recipient",
          "type": "address"
        },
        {
          "indexed": false,
          "internalType": "uint256",
          "name": "amount",
          "type": "uint256"
        }
      ],
      "name": "PromotionDestroyed",
      "type": "event"
    },
    {
      "anonymous": false,
      "inputs": [
        {
          "indexed": true,
          "internalType": "uint256",
          "name": "promotionId",
          "type": "uint256"
        },
        {
          "indexed": true,
          "internalType": "address",
          "name": "recipient",
          "type": "address"
        },
        {
          "indexed": false,
          "internalType": "uint256",
          "name": "amount",
          "type": "uint256"
        },
        {
          "indexed": false,
          "internalType": "uint8",
          "name": "epochNumber",
          "type": "uint8"
        }
      ],
      "name": "PromotionEnded",
      "type": "event"
    },
    {
      "anonymous": false,
      "inputs": [
        {
          "indexed": true,
          "internalType": "uint256",
          "name": "promotionId",
          "type": "uint256"
        },
        {
          "indexed": false,
          "internalType": "uint256",
          "name": "numberOfEpochs",
          "type": "uint256"
        }
      ],
      "name": "PromotionExtended",
      "type": "event"
    },
    {
      "anonymous": false,
      "inputs": [
        {
          "indexed": true,
          "internalType": "uint256",
          "name": "promotionId",
          "type": "uint256"
        },
        {
          "indexed": false,
          "internalType": "uint8[]",
          "name": "epochIds",
          "type": "uint8[]"
        },
        {
          "indexed": true,
          "internalType": "address",
          "name": "user",
          "type": "address"
        },
        {
          "indexed": false,
          "internalType": "uint256",
          "name": "amount",
          "type": "uint256"
        }
      ],
      "name": "RewardsClaimed",
      "type": "event"
    },
    {
      "inputs": [],
      "name": "GRACE_PERIOD",
      "outputs": [
        {
          "internalType": "uint32",
          "name": "",
          "type": "uint32"
        }
      ],
      "stateMutability": "view",
      "type": "function"
    },
    {
      "inputs": [],
      "name": "MAX_DISTRIBUTION_LENGTH",
      "outputs": [
        {
          "internalType": "uint256",
          "name": "",
          "type": "uint256"
        }
      ],
      "stateMutability": "view",
      "type": "function"
    },
    {
      "inputs": [],
      "name": "MAX_DRAW_IDS_LENGTH",
      "outputs": [
        {
          "internalType": "uint256",
          "name": "",
          "type": "uint256"
        }
      ],
      "stateMutability": "view",
      "type": "function"
    },
    {
      "inputs": [],
      "name": "MAX_EPOCH_IDS_LENGTH",
      "outputs": [
        {
          "internalType": "uint256",
          "name": "",
          "type": "uint256"
        }
      ],
      "stateMutability": "view",
      "type": "function"
    },
    {
      "inputs": [],
      "name": "MAX_TIMESTAMPS_LENGTH",
      "outputs": [
        {
          "internalType": "uint256",
          "name": "",
          "type": "uint256"
        }
      ],
      "stateMutability": "view",
      "type": "function"
    },
    {
      "inputs": [],
      "name": "MAX_TOKEN_IDS_LENGTH",
      "outputs": [
        {
          "internalType": "uint256",
          "name": "",
          "type": "uint256"
        }
      ],
      "stateMutability": "view",
      "type": "function"
    },
    {
      "inputs": [
        {
          "internalType": "address",
          "name": "_user",
          "type": "address"
        },
        {
          "internalType": "uint256",
          "name": "_promotionId",
          "type": "uint256"
        },
        {
          "internalType": "uint8[]",
          "name": "_epochIds",
          "type": "uint8[]"
        }
      ],
      "name": "claimRewards",
      "outputs": [
        {
          "internalType": "uint256",
          "name": "",
          "type": "uint256"
        }
      ],
      "stateMutability": "nonpayable",
      "type": "function"
    },
    {
      "inputs": [
        {
          "internalType": "contract IERC20Upgradeable",
          "name": "_token",
          "type": "address"
        },
        {
          "internalType": "uint64",
          "name": "_startTimestamp",
          "type": "uint64"
        },
        {
          "internalType": "uint256",
          "name": "_tokensPerEpoch",
          "type": "uint256"
        },
        {
          "internalType": "uint48",
          "name": "_epochDuration",
          "type": "uint48"
        },
        {
          "internalType": "uint8",
          "name": "_numberOfEpochs",
          "type": "uint8"
        }
      ],
      "name": "createPromotion",
      "outputs": [
        {
          "internalType": "uint256",
          "name": "",
          "type": "uint256"
        }
      ],
      "stateMutability": "nonpayable",
      "type": "function"
    },
    {
      "inputs": [
        {
          "internalType": "uint256",
          "name": "_promotionId",
          "type": "uint256"
        },
        {
          "internalType": "address",
          "name": "_to",
          "type": "address"
        }
      ],
      "name": "destroyPromotion",
      "outputs": [
        {
          "internalType": "bool",
          "name": "",
          "type": "bool"
        }
      ],
      "stateMutability": "nonpayable",
      "type": "function"
    },
    {
      "inputs": [
        {
          "internalType": "uint256",
          "name": "_promotionId",
          "type": "uint256"
        },
        {
          "internalType": "address",
          "name": "_to",
          "type": "address"
        }
      ],
      "name": "endPromotion",
      "outputs": [
        {
          "internalType": "bool",
          "name": "",
          "type": "bool"
        }
      ],
      "stateMutability": "nonpayable",
      "type": "function"
    },
    {
      "inputs": [
        {
          "internalType": "uint256",
          "name": "_promotionId",
          "type": "uint256"
        },
        {
          "internalType": "uint8",
          "name": "_numberOfEpochs",
          "type": "uint8"
        }
      ],
      "name": "extendPromotion",
      "outputs": [
        {
          "internalType": "bool",
          "name": "",
          "type": "bool"
        }
      ],
      "stateMutability": "nonpayable",
      "type": "function"
    },
    {
      "inputs": [
        {
          "internalType": "uint256",
          "name": "_promotionId",
          "type": "uint256"
        }
      ],
      "name": "getCurrentEpochId",
      "outputs": [
        {
          "internalType": "uint256",
          "name": "",
          "type": "uint256"
        }
      ],
      "stateMutability": "view",
      "type": "function"
    },
    {
      "inputs": [
        {
          "internalType": "uint256",
          "name": "_promotionId",
          "type": "uint256"
        }
      ],
      "name": "getPromotion",
      "outputs": [
        {
          "components": [
            {
              "internalType": "address",
              "name": "creator",
              "type": "address"
            },
            {
              "internalType": "uint64",
              "name": "startTimestamp",
              "type": "uint64"
            },
            {
              "internalType": "uint8",
              "name": "numberOfEpochs",
              "type": "uint8"
            },
            {
              "internalType": "uint48",
              "name": "epochDuration",
              "type": "uint48"
            },
            {
              "internalType": "uint48",
              "name": "createdAt",
              "type": "uint48"
            },
            {
              "internalType": "contract IERC20Upgradeable",
              "name": "token",
              "type": "address"
            },
            {
              "internalType": "uint256",
              "name": "tokensPerEpoch",
              "type": "uint256"
            },
            {
              "internalType": "uint256",
              "name": "rewardsUnclaimed",
              "type": "uint256"
            }
          ],
          "internalType": "struct ITwabRewards.Promotion",
          "name": "",
          "type": "tuple"
        }
      ],
      "stateMutability": "view",
      "type": "function"
    },
    {
      "inputs": [
        {
          "internalType": "uint256",
          "name": "_promotionId",
          "type": "uint256"
        }
      ],
      "name": "getRemainingRewards",
      "outputs": [
        {
          "internalType": "uint256",
          "name": "",
          "type": "uint256"
        }
      ],
      "stateMutability": "view",
      "type": "function"
    },
    {
      "inputs": [
        {
          "internalType": "address",
          "name": "_user",
          "type": "address"
        },
        {
          "internalType": "uint256",
          "name": "_promotionId",
          "type": "uint256"
        },
        {
          "internalType": "uint8[]",
          "name": "_epochIds",
          "type": "uint8[]"
        }
      ],
      "name": "getRewardsAmount",
      "outputs": [
        {
          "internalType": "uint256[]",
          "name": "",
          "type": "uint256[]"
        }
      ],
      "stateMutability": "view",
      "type": "function"
    },
    {
      "inputs": [
        {
          "internalType": "contract ITicket",
          "name": "_ticket",
          "type": "address"
        }
      ],
      "name": "initialize",
      "outputs": [],
      "stateMutability": "nonpayable",
      "type": "function"
    },
    {
      "inputs": [],
      "name": "ticket",
      "outputs": [
        {
          "internalType": "contract ITicket",
          "name": "",
          "type": "address"
        }
      ],
      "stateMutability": "view",
      "type": "function"
    }
  ],
  "bytecode": "0x608060405234801561001057600080fd5b5061001961001e565b6100de565b600054610100900460ff161561008a5760405162461bcd60e51b815260206004820152602760248201527f496e697469616c697a61626c653a20636f6e747261637420697320696e697469604482015266616c697a696e6760c81b606482015260840160405180910390fd5b60005460ff90811610156100dc576000805460ff191660ff9081179091556040519081527f7f26b83ff96e1f2b6a682f133852f6798a09c465da95921460cefb38474024989060200160405180910390a15b565b61238580620000ee6000396000f3fe608060405234801561001057600080fd5b506004361061011b5760003560e01c806366cfae5e116100b2578063b2456c3a11610081578063c1a287e211610066578063c1a287e21461024a578063c4d66de814610269578063f824d0fb1461027e57600080fd5b8063b2456c3a14610237578063b9189d16146101ce57600080fd5b806366cfae5e146101d75780636cc25db7146101ea57806388209a191461021b578063a49588451461022457600080fd5b806314fdecca116100ee57806314fdecca1461019257806320555db1146101b257806320768fc0146101c55780635c56377e146101ce57600080fd5b80630154f2d114610120578063096fe6681461013c5780630b011a161461015f578063120468a01461017f575b600080fd5b61012961010081565b6040519081526020015b60405180910390f35b61014f61014a366004611cd0565b610291565b6040519015158152602001610133565b61017261016d366004611d11565b610404565b6040516101339190611d9d565b61014f61018d366004611de1565b6105ad565b6101a56101a0366004611e11565b610714565b6040516101339190611e2a565b61014f6101c0366004611de1565b610764565b6101296101f481565b6101296103e881565b6101296101e5366004611ec2565b610935565b600054610203906201000090046001600160a01b031681565b6040516001600160a01b039091168152602001610133565b61012961271081565b610129610232366004611e11565b610dcf565b610129610245366004611d11565b610de2565b610254624f1a0081565b60405163ffffffff9091168152602001610133565b61027c610277366004611f3e565b610fdf565b005b61012961028c366004611e11565b61111f565b600061029c82611132565b60006102a784611188565b90506102b2816112cc565b60408101516102c28160ff611f71565b60ff168460ff16111561031c5760405162461bcd60e51b815260206004820152601d60248201527f54776162526577617264732f65706f6368732d6f7665722d6c696d697400000060448201526064015b60405180910390fd5b6103268482611f94565b600086815260016020526040812080547fffffff00ffffffffffffffffffffffffffffffffffffffffffffffffffffffff16600160e01b60ff9485160217905560c0840151909161037991908716611fb9565b9050806001600088815260200190815260200160002060030160008282546103a19190611fd8565b909155505060a08301516103c0906001600160a01b0316333084611343565b60405160ff8616815286907fa9527ed49c1c2ab5449cfef5b611076ce228a0a0de4534874963b83abb6e7b469060200160405180910390a250600195945050505050565b60606103e88211156104585760405162461bcd60e51b815260206004820152601e60248201527f54776162526577617264732f77726f6e672d61727261792d6c656e67746800006044820152606401610313565b600061046385611188565b90508260008167ffffffffffffffff81111561048157610481611ff0565b6040519080825280602002602001820160405280156104aa578160200160208202803683370190505b50905060005b8281101561059f5760008881526003602090815260408083206001600160a01b038d168452909152902054610513908888848181106104f1576104f1612006565b9050602002016020810190610506919061201c565b60ff161c60019081161490565b1561053d57600082828151811061052c5761052c612006565b60200260200101818152505061058d565b61056e898589898581811061055457610554612006565b9050602002016020810190610569919061201c565b6113fa565b82828151811061058057610580612006565b6020026020010181815250505b8061059781612037565b9150506104b0565b50925050505b949350505050565b60006001600160a01b0382166106055760405162461bcd60e51b815260206004820152601f60248201527f54776162526577617264732f70617965652d6e6f742d7a65726f2d61646472006044820152606401610313565b600061061084611188565b905061061b81611726565b610624816112cc565b600061062f8261177f565b600086815260016020526040812080547fffffff00ffffffffffffffffffffffffffffffffffffffffffffffffffffffff16600160e01b60ff85160217905590915061067a836117cb565b9050806001600088815260200190815260200160002060030160008282546106a29190612052565b909155505060a08301516106c0906001600160a01b0316868361182f565b6040805182815260ff841660208201526001600160a01b0387169188917f98f89153fa6ee40b2edcd2e1ce4a5a9edfb2f74818016fc24e6cfe7b6fcd12a9910160405180910390a350600195945050505050565b6040805161010081018252600080825260208201819052918101829052606081018290526080810182905260a0810182905260c0810182905260e081019190915261075e82611188565b92915050565b60006001600160a01b0382166107bc5760405162461bcd60e51b815260206004820152601f60248201527f54776162526577617264732f70617965652d6e6f742d7a65726f2d61646472006044820152606401610313565b60006107c784611188565b90506107d281611726565b60408101516060820151602083015160009260ff1690910265ffffffffffff160167ffffffffffffffff16608083015190915065ffffffffffff166000624f1a008284106108205783610822565b825b61082c9190611fd8565b90508042101561087e5760405162461bcd60e51b815260206004820152601f60248201527f54776162526577617264732f67726163652d706572696f642d616374697665006044820152606401610313565b60e08401516000888152600160208190526040822080547fffffff0000000000000000000000000000000000000000000000000000000000168155908101829055600281018290556003015560a08501516108e3906001600160a01b0316888361182f565b866001600160a01b0316887f6f804f2ef186cd4b2a6740c084b86f557a497a1fcf3a6b073068a55c51187b6f8360405161091f91815260200190565b60405180910390a3506001979650505050505050565b6000428567ffffffffffffffff16116109b65760405162461bcd60e51b815260206004820152602a60248201527f54776162526577617264732f73746172742d74696d657374616d702d69732d6960448201527f6e2d7468652d70617374000000000000000000000000000000000000000000006064820152608401610313565b60008411610a065760405162461bcd60e51b815260206004820152601b60248201527f54776162526577617264732f746f6b656e732d6e6f742d7a65726f00000000006044820152606401610313565b60008365ffffffffffff1611610a5e5760405162461bcd60e51b815260206004820152601d60248201527f54776162526577617264732f6475726174696f6e2d6e6f742d7a65726f0000006044820152606401610313565b610a6782611132565b60006002546001610a789190611fd8565b600281905590506000610a8e60ff851687611fb9565b9050604051806101000160405280336001600160a01b031681526020018867ffffffffffffffff1681526020018560ff1681526020018665ffffffffffff1681526020014265ffffffffffff168152602001896001600160a01b03168152602001878152602001828152506001600084815260200190815260200160002060008201518160000160006101000a8154816001600160a01b0302191690836001600160a01b0316021790555060208201518160000160146101000a81548167ffffffffffffffff021916908367ffffffffffffffff160217905550604082015181600001601c6101000a81548160ff021916908360ff16021790555060608201518160010160006101000a81548165ffffffffffff021916908365ffffffffffff16021790555060808201518160010160066101000a81548165ffffffffffff021916908365ffffffffffff16021790555060a082015181600101600c6101000a8154816001600160a01b0302191690836001600160a01b0316021790555060c0820151816002015560e082015181600301559050506000886001600160a01b03166370a08231306040518263ffffffff1660e01b8152600401610c6091906001600160a01b0391909116815260200190565b602060405180830381865afa158015610c7d573d6000803e3d6000fd5b505050506040513d601f19601f82011682018060405250810190610ca19190612069565b9050610cb86001600160a01b038a16333085611343565b6040517f70a082310000000000000000000000000000000000000000000000000000000081523060048201526000906001600160a01b038b16906370a0823190602401602060405180830381865afa158015610d18573d6000803e3d6000fd5b505050506040513d601f19601f82011682018060405250810190610d3c9190612069565b905080610d498484611fd8565b14610d965760405162461bcd60e51b815260206004820152601d60248201527f54776162526577617264732f70726f6d6f2d616d6f756e742d646966660000006044820152606401610313565b60405184907faedc1797e973574eb0e43205c473287ca44eb1c9d0f677dbb0ec8cfc72bb68f390600090a2509198975050505050505050565b600061075e610ddd83611188565b6117cb565b60006103e8821115610e365760405162461bcd60e51b815260206004820152601e60248201527f54776162526577617264732f77726f6e672d61727261792d6c656e67746800006044820152606401610313565b6000610e4185611188565b60008681526003602090815260408083206001600160a01b038b1684529091528120549192509084825b81811015610f2d576000888883818110610e8757610e87612006565b9050602002016020810190610e9c919061201c565b9050600160ff821685901c81161415610ef75760405162461bcd60e51b815260206004820152601b60248201527f54776162526577617264732f726577617264732d636c61696d656400000000006044820152606401610313565b610f028b87836113fa565b610f0c9086611fd8565b9450600160ff82161b84179350508080610f2590612037565b915050610e6b565b5060008881526003602081815260408084206001600160a01b038e16855282528084208690558b845260019091528220018054859290610f6e908490612052565b909155505060a0840151610f8c906001600160a01b03168a8561182f565b886001600160a01b0316887f446a5bb69110f4fa9a5802e85237a4281d1d27dbe989b22da4a75d9deae8c778898987604051610fca93929190612082565b60405180910390a35090979650505050505050565b600054610100900460ff1615808015610fff5750600054600160ff909116105b806110195750303b158015611019575060005460ff166001145b61108b5760405162461bcd60e51b815260206004820152602e60248201527f496e697469616c697a61626c653a20636f6e747261637420697320616c72656160448201527f647920696e697469616c697a65640000000000000000000000000000000000006064820152608401610313565b600080547fffffffffffffffffffffffffffffffffffffffffffffffffffffffffffffff0016600117905580156110cc576000805461ff0019166101001790555b6110d58261187d565b801561111b576000805461ff0019169055604051600181527f7f26b83ff96e1f2b6a682f133852f6798a09c465da95921460cefb38474024989060200160405180910390a15b5050565b600061075e61112d83611188565b61177f565b60008160ff16116111855760405162461bcd60e51b815260206004820152601b60248201527f54776162526577617264732f65706f6368732d6e6f742d7a65726f00000000006044820152606401610313565b50565b6040805161010081018252600080825260208201819052918101829052606081018290526080810182905260a0810182905260c0810182905260e081019190915260008281526001602081815260409283902083516101008101855281546001600160a01b0380821680845274010000000000000000000000000000000000000000830467ffffffffffffffff1695840195909552600160e01b90910460ff16958201959095529281015465ffffffffffff8082166060860152660100000000000082041660808501526c01000000000000000000000000900490931660a0830152600283015460c083015260039092015460e08201529061075e5760405162461bcd60e51b815260206004820152601d60248201527f54776162526577617264732f696e76616c69642d70726f6d6f74696f6e0000006044820152606401610313565b604081015160608201516020830151429260ff1690910265ffffffffffff160167ffffffffffffffff16116111855760405162461bcd60e51b815260206004820152601e60248201527f54776162526577617264732f70726f6d6f74696f6e2d696e61637469766500006044820152606401610313565b6040516001600160a01b03808516602483015283166044820152606481018290526113f49085907f23b872dd00000000000000000000000000000000000000000000000000000000906084015b60408051601f198184030181529190526020810180517bffffffffffffffffffffffffffffffffffffffffffffffffffffffff167fffffffff0000000000000000000000000000000000000000000000000000000090931692909217909152611943565b50505050565b606082015160009065ffffffffffff168161141860ff8516836120d0565b85602001516114279190612100565b905060006114358383612100565b90508067ffffffffffffffff164210156114915760405162461bcd60e51b815260206004820152601a60248201527f54776162526577617264732f65706f63682d6e6f742d6f7665720000000000006044820152606401610313565b856040015160ff168560ff16106114ea5760405162461bcd60e51b815260206004820152601c60248201527f54776162526577617264732f696e76616c69642d65706f63682d6964000000006044820152606401610313565b600080546040517f98b16f360000000000000000000000000000000000000000000000000000000081526001600160a01b038a8116600483015267ffffffffffffffff80871660248401528516604483015262010000909204909116906398b16f3690606401602060405180830381865afa15801561156d573d6000803e3d6000fd5b505050506040513d601f19601f820116820180604052508101906115919190612069565b90508015611716576040805160018082528183019092526000916020808301908036833701905050905083816000815181106115cf576115cf612006565b67ffffffffffffffff9290921660209283029190910190910152604080516001808252818301909252600091816020016020820280368337019050509050838160008151811061162157611621612006565b67ffffffffffffffff9290921660209283029190910190910152600080546040517f8e6d536a000000000000000000000000000000000000000000000000000000008152620100009091046001600160a01b031690638e6d536a9061168c9086908690600401612171565b600060405180830381865afa1580156116a9573d6000803e3d6000fd5b505050506040513d6000823e601f3d908101601f191682016040526116d1919081019061219f565b6000815181106116e3576116e3612006565b6020026020010151905080848b60c001516116fe9190611fb9565b6117089190612273565b97505050505050505061171f565b60009450505050505b9392505050565b80516001600160a01b031633146111855760405162461bcd60e51b815260206004820152601e60248201527f54776162526577617264732f6f6e6c792d70726f6d6f2d63726561746f7200006044820152606401610313565b600080826020015167ffffffffffffffff1642111561075e57826060015165ffffffffffff16836020015167ffffffffffffffff164203816117c3576117c361225d565b049392505050565b60408101516060820151602083015160009260ff1690910265ffffffffffff160167ffffffffffffffff1642111561180557506000919050565b61180e8261177f565b826040015160ff166118209190612052565b8260c0015161075e9190611fb9565b6040516001600160a01b0383166024820152604481018290526118789084907fa9059cbb0000000000000000000000000000000000000000000000000000000090606401611390565b505050565b600054610100900460ff166118fa5760405162461bcd60e51b815260206004820152602b60248201527f496e697469616c697a61626c653a20636f6e7472616374206973206e6f74206960448201527f6e697469616c697a696e670000000000000000000000000000000000000000006064820152608401610313565b61190381611a28565b600080546001600160a01b0390921662010000027fffffffffffffffffffff0000000000000000000000000000000000000000ffff909216919091179055565b6000611998826040518060400160405280602081526020017f5361666545524332303a206c6f772d6c6576656c2063616c6c206661696c6564815250856001600160a01b0316611b9a9092919063ffffffff16565b80519091501561187857808060200190518101906119b69190612295565b6118785760405162461bcd60e51b815260206004820152602a60248201527f5361666545524332303a204552433230206f7065726174696f6e20646964206e60448201527f6f742073756363656564000000000000000000000000000000000000000000006064820152608401610313565b6001600160a01b038116611a7e5760405162461bcd60e51b815260206004820181905260248201527f54776162526577617264732f7469636b65742d6e6f742d7a65726f2d616464726044820152606401610313565b6040517ff77c479100000000000000000000000000000000000000000000000000000000602082015260009081906001600160a01b0384169060240160408051601f1981840301815290829052611ad4916122e3565b600060405180830381855afa9150503d8060008114611b0f576040519150601f19603f3d011682016040523d82523d6000602084013e611b14565b606091505b5091509150818015611b27575060008151115b8015611b4e575080806020019051810190611b4291906122ff565b6001600160a01b031615155b6118785760405162461bcd60e51b815260206004820152601a60248201527f54776162526577617264732f696e76616c69642d7469636b65740000000000006044820152606401610313565b60606105a5848460008585600080866001600160a01b03168587604051611bc191906122e3565b60006040518083038185875af1925050503d8060008114611bfe576040519150601f19603f3d011682016040523d82523d6000602084013e611c03565b606091505b5091509150611c1487838387611c1f565b979650505050505050565b60608315611c8b578251611c84576001600160a01b0385163b611c845760405162461bcd60e51b815260206004820152601d60248201527f416464726573733a2063616c6c20746f206e6f6e2d636f6e74726163740000006044820152606401610313565b50816105a5565b6105a58383815115611ca05781518083602001fd5b8060405162461bcd60e51b8152600401610313919061231c565b803560ff81168114611ccb57600080fd5b919050565b60008060408385031215611ce357600080fd5b82359150611cf360208401611cba565b90509250929050565b6001600160a01b038116811461118557600080fd5b60008060008060608587031215611d2757600080fd5b8435611d3281611cfc565b935060208501359250604085013567ffffffffffffffff80821115611d5657600080fd5b818701915087601f830112611d6a57600080fd5b813581811115611d7957600080fd5b8860208260051b8501011115611d8e57600080fd5b95989497505060200194505050565b6020808252825182820181905260009190848201906040850190845b81811015611dd557835183529284019291840191600101611db9565b50909695505050505050565b60008060408385031215611df457600080fd5b823591506020830135611e0681611cfc565b809150509250929050565b600060208284031215611e2357600080fd5b5035919050565b6000610100820190506001600160a01b03835116825267ffffffffffffffff602084015116602083015260ff604084015116604083015265ffffffffffff60608401511660608301526080830151611e8c608084018265ffffffffffff169052565b5060a0830151611ea760a08401826001600160a01b03169052565b5060c083015160c083015260e083015160e083015292915050565b600080600080600060a08688031215611eda57600080fd5b8535611ee581611cfc565b9450602086013567ffffffffffffffff81168114611f0257600080fd5b935060408601359250606086013565ffffffffffff81168114611f2457600080fd5b9150611f3260808701611cba565b90509295509295909350565b600060208284031215611f5057600080fd5b813561171f81611cfc565b634e487b7160e01b600052601160045260246000fd5b600060ff821660ff841680821015611f8b57611f8b611f5b565b90039392505050565b600060ff821660ff84168060ff03821115611fb157611fb1611f5b565b019392505050565b6000816000190483118215151615611fd357611fd3611f5b565b500290565b60008219821115611feb57611feb611f5b565b500190565b634e487b7160e01b600052604160045260246000fd5b634e487b7160e01b600052603260045260246000fd5b60006020828403121561202e57600080fd5b61171f82611cba565b600060001982141561204b5761204b611f5b565b5060010190565b60008282101561206457612064611f5b565b500390565b60006020828403121561207b57600080fd5b5051919050565b6040808252810183905260008460608301825b868110156120bd5760ff6120a884611cba565b16825260209283019290910190600101612095565b5060209390930193909352509392505050565b600067ffffffffffffffff808316818516818304811182151516156120f7576120f7611f5b565b02949350505050565b600067ffffffffffffffff80831681851680830382111561212357612123611f5b565b01949350505050565b600081518084526020808501945080840160005b8381101561216657815167ffffffffffffffff1687529582019590820190600101612140565b509495945050505050565b604081526000612184604083018561212c565b8281036020840152612196818561212c565b95945050505050565b600060208083850312156121b257600080fd5b825167ffffffffffffffff808211156121ca57600080fd5b818501915085601f8301126121de57600080fd5b8151818111156121f0576121f0611ff0565b8060051b604051601f19603f8301168101818110858211171561221557612215611ff0565b60405291825284820192508381018501918883111561223357600080fd5b938501935b8285101561225157845184529385019392850192612238565b98975050505050505050565b634e487b7160e01b600052601260045260246000fd5b60008261229057634e487b7160e01b600052601260045260246000fd5b500490565b6000602082840312156122a757600080fd5b8151801515811461171f57600080fd5b60005b838110156122d25781810151838201526020016122ba565b838111156113f45750506000910152565b600082516122f58184602087016122b7565b9190910192915050565b60006020828403121561231157600080fd5b815161171f81611cfc565b602081526000825180602084015261233b8160408501602087016122b7565b601f01601f1916919091016040019291505056fea26469706673582212203c46ae928588b23a8831996b1cbb7bf0babab3c22c89f74f1523b8f8c1bf078964736f6c634300080a0033",
  "linkReferences": {},
  "deployedLinkReferences": {}
}