{
  "_format": "hh-sol-artifact-1",
  "contractName": "PrizeDistributor",
  "sourceName": "contracts/core/PrizeDistributor.sol",
  "abi": [
    {
      "inputs": [],
      "stateMutability": "nonpayable",
      "type": "constructor"
    },
    {
      "anonymous": false,
      "inputs": [
        {
          "indexed": false,
          "internalType": "uint16[]",
          "name": "distribution",
          "type": "uint16[]"
        }
      ],
      "name": "DistributionSet",
      "type": "event"
    },
    {
      "anonymous": false,
      "inputs": [
        {
          "indexed": false,
          "internalType": "contract IDrawBuffer",
          "name": "drawBuffer",
          "type": "address"
        }
      ],
      "name": "DrawBufferSet",
      "type": "event"
    },
    {
      "anonymous": false,
      "inputs": [
        {
          "indexed": true,
          "internalType": "uint32",
          "name": "drawId",
          "type": "uint32"
        },
        {
          "indexed": false,
          "internalType": "uint256",
          "name": "totalPayout",
          "type": "uint256"
        },
        {
          "indexed": false,
          "internalType": "address[]",
          "name": "winners",
          "type": "address[]"
        },
        {
          "indexed": false,
          "internalType": "uint256[]",
          "name": "winningPicks",
          "type": "uint256[]"
        },
        {
          "indexed": false,
          "internalType": "uint256[]",
          "name": "payouts",
          "type": "uint256[]"
        },
        {
          "indexed": true,
          "internalType": "uint64",
          "name": "timestamp",
          "type": "uint64"
        }
      ],
      "name": "DrawPaid",
      "type": "event"
    },
    {
      "anonymous": false,
      "inputs": [
        {
          "indexed": true,
          "internalType": "contract IERC20Upgradeable",
          "name": "token",
          "type": "address"
        },
        {
          "indexed": true,
          "internalType": "address",
          "name": "to",
          "type": "address"
        },
        {
          "indexed": false,
          "internalType": "uint256",
          "name": "amount",
          "type": "uint256"
        }
      ],
      "name": "ERC20Withdrawn",
      "type": "event"
    },
    {
      "anonymous": false,
      "inputs": [
        {
          "indexed": false,
          "internalType": "uint8",
          "name": "version",
          "type": "uint8"
        }
      ],
      "name": "Initialized",
      "type": "event"
    },
    {
      "anonymous": false,
      "inputs": [
        {
          "indexed": true,
          "internalType": "address",
          "name": "previousManager",
          "type": "address"
        },
        {
          "indexed": true,
          "internalType": "address",
          "name": "newManager",
          "type": "address"
        }
      ],
      "name": "ManagerTransferred",
      "type": "event"
    },
    {
      "anonymous": false,
      "inputs": [
        {
          "indexed": true,
          "internalType": "address",
          "name": "pendingOwner",
          "type": "address"
        }
      ],
      "name": "OwnershipOffered",
      "type": "event"
    },
    {
      "anonymous": false,
      "inputs": [
        {
          "indexed": true,
          "internalType": "address",
          "name": "previousOwner",
          "type": "address"
        },
        {
          "indexed": true,
          "internalType": "address",
          "name": "newOwner",
          "type": "address"
        }
      ],
      "name": "OwnershipTransferred",
      "type": "event"
    },
    {
      "anonymous": false,
      "inputs": [
        {
          "indexed": false,
          "internalType": "contract IPrizeDistributionBuffer",
          "name": "prizeDistributionBuffer",
          "type": "address"
        }
      ],
      "name": "PrizeDistributionBufferSet",
      "type": "event"
    },
    {
      "anonymous": false,
      "inputs": [
        {
          "indexed": true,
          "internalType": "uint32",
          "name": "drawId",
          "type": "uint32"
        },
        {
          "indexed": false,
          "internalType": "uint256[]",
          "name": "randomness",
          "type": "uint256[]"
        }
      ],
      "name": "RandomnessProcessed",
      "type": "event"
    },
    {
      "anonymous": false,
      "inputs": [
        {
          "indexed": true,
          "internalType": "uint32",
          "name": "rngRequestId",
          "type": "uint32"
        },
        {
          "indexed": false,
          "internalType": "uint32",
          "name": "rngLockBlock",
          "type": "uint32"
        }
      ],
      "name": "RandomnessRequestCancelled",
      "type": "event"
    },
    {
      "anonymous": false,
      "inputs": [
        {
          "indexed": true,
          "internalType": "uint32",
          "name": "drawId",
          "type": "uint32"
        },
        {
          "indexed": true,
          "internalType": "uint32",
          "name": "requestId",
          "type": "uint32"
        },
        {
          "indexed": true,
          "internalType": "uint32",
          "name": "lockBlock",
          "type": "uint32"
        },
        {
          "indexed": false,
          "internalType": "uint32",
          "name": "numbersCount",
          "type": "uint32"
        }
      ],
      "name": "RandomnessRequested",
      "type": "event"
    },
    {
      "anonymous": false,
      "inputs": [
        {
          "indexed": true,
          "internalType": "contract IRNGServiceChainlinkV2",
          "name": "rngService",
          "type": "address"
        }
      ],
      "name": "RngServiceSet",
      "type": "event"
    },
    {
      "anonymous": false,
      "inputs": [
        {
          "indexed": false,
          "internalType": "uint32",
          "name": "rngTimeout",
          "type": "uint32"
        }
      ],
      "name": "RngTimeoutSet",
      "type": "event"
    },
    {
      "anonymous": false,
      "inputs": [
        {
          "indexed": true,
          "internalType": "contract IERC20Upgradeable",
          "name": "token",
          "type": "address"
        }
      ],
      "name": "TokenSet",
      "type": "event"
    },
    {
      "inputs": [],
      "name": "MAX_DISTRIBUTION_LENGTH",
      "outputs": [
        {
          "internalType": "uint256",
          "name": "",
          "type": "uint256"
        }
      ],
      "stateMutability": "view",
      "type": "function"
    },
    {
      "inputs": [],
      "name": "MAX_DRAW_IDS_LENGTH",
      "outputs": [
        {
          "internalType": "uint256",
          "name": "",
          "type": "uint256"
        }
      ],
      "stateMutability": "view",
      "type": "function"
    },
    {
      "inputs": [],
      "name": "MAX_EPOCH_IDS_LENGTH",
      "outputs": [
        {
          "internalType": "uint256",
          "name": "",
          "type": "uint256"
        }
      ],
      "stateMutability": "view",
      "type": "function"
    },
    {
      "inputs": [],
      "name": "MAX_TIMESTAMPS_LENGTH",
      "outputs": [
        {
          "internalType": "uint256",
          "name": "",
          "type": "uint256"
        }
      ],
      "stateMutability": "view",
      "type": "function"
    },
    {
      "inputs": [],
      "name": "MAX_TOKEN_IDS_LENGTH",
      "outputs": [
        {
          "internalType": "uint256",
          "name": "",
          "type": "uint256"
        }
      ],
      "stateMutability": "view",
      "type": "function"
    },
    {
      "inputs": [],
      "name": "ONE_HUNDRED_PERCENTS",
      "outputs": [
        {
          "internalType": "uint16",
          "name": "",
          "type": "uint16"
        }
      ],
      "stateMutability": "view",
      "type": "function"
    },
    {
      "inputs": [],
      "name": "cancelRandomnessRequest",
      "outputs": [],
      "stateMutability": "nonpayable",
      "type": "function"
    },
    {
      "inputs": [],
      "name": "claimOwnership",
      "outputs": [],
      "stateMutability": "nonpayable",
      "type": "function"
    },
    {
      "inputs": [],
      "name": "getDistribution",
      "outputs": [
        {
          "internalType": "uint16[]",
          "name": "",
          "type": "uint16[]"
        }
      ],
      "stateMutability": "view",
      "type": "function"
    },
    {
      "inputs": [],
      "name": "getDrawBuffer",
      "outputs": [
        {
          "internalType": "contract IDrawBuffer",
          "name": "",
          "type": "address"
        }
      ],
      "stateMutability": "view",
      "type": "function"
    },
    {
      "inputs": [],
      "name": "getLastRngRequest",
      "outputs": [
        {
          "components": [
            {
              "internalType": "uint32",
              "name": "id",
              "type": "uint32"
            },
            {
              "internalType": "uint32",
              "name": "lockBlock",
              "type": "uint32"
            },
            {
              "internalType": "uint64",
              "name": "requestedAt",
              "type": "uint64"
            }
          ],
          "internalType": "struct IPrizeDistributor.RngRequest",
          "name": "",
          "type": "tuple"
        }
      ],
      "stateMutability": "view",
      "type": "function"
    },
    {
      "inputs": [],
      "name": "getLastUnpaidDrawId",
      "outputs": [
        {
          "internalType": "uint32",
          "name": "",
          "type": "uint32"
        }
      ],
      "stateMutability": "view",
      "type": "function"
    },
    {
      "inputs": [],
      "name": "getNumberOfWinners",
      "outputs": [
        {
          "internalType": "uint16",
          "name": "",
          "type": "uint16"
        }
      ],
      "stateMutability": "view",
      "type": "function"
    },
    {
      "inputs": [],
      "name": "getPrizeDistributionBuffer",
      "outputs": [
        {
          "internalType": "contract IPrizeDistributionBuffer",
          "name": "",
          "type": "address"
        }
      ],
      "stateMutability": "view",
      "type": "function"
    },
    {
      "inputs": [],
      "name": "getRngService",
      "outputs": [
        {
          "internalType": "contract IRNGServiceChainlinkV2",
          "name": "",
          "type": "address"
        }
      ],
      "stateMutability": "view",
      "type": "function"
    },
    {
      "inputs": [],
      "name": "getRngTimeout",
      "outputs": [
        {
          "internalType": "uint32",
          "name": "",
          "type": "uint32"
        }
      ],
      "stateMutability": "view",
      "type": "function"
    },
    {
      "inputs": [],
      "name": "getToken",
      "outputs": [
        {
          "internalType": "contract IERC20Upgradeable",
          "name": "",
          "type": "address"
        }
      ],
      "stateMutability": "view",
      "type": "function"
    },
    {
      "inputs": [
        {
          "internalType": "address",
          "name": "_owner",
          "type": "address"
        },
        {
          "internalType": "contract IERC20Upgradeable",
          "name": "_token",
          "type": "address"
        },
        {
          "internalType": "contract IDrawBuffer",
          "name": "_drawBuffer",
          "type": "address"
        },
        {
          "internalType": "contract IPrizeDistributionBuffer",
          "name": "_prizeDistributionBuffer",
          "type": "address"
        },
        {
          "internalType": "contract IRNGServiceChainlinkV2",
          "name": "_rngService",
          "type": "address"
        },
        {
          "internalType": "uint16[]",
          "name": "_distribution",
          "type": "uint16[]"
        },
        {
          "internalType": "uint32",
          "name": "_rngTimeout",
          "type": "uint32"
        }
      ],
      "name": "initialize",
      "outputs": [],
      "stateMutability": "nonpayable",
      "type": "function"
    },
    {
      "inputs": [],
      "name": "isRngCompleted",
      "outputs": [
        {
          "internalType": "bool",
          "name": "",
          "type": "bool"
        }
      ],
      "stateMutability": "view",
      "type": "function"
    },
    {
      "inputs": [],
      "name": "isRngRequested",
      "outputs": [
        {
          "internalType": "bool",
          "name": "",
          "type": "bool"
        }
      ],
      "stateMutability": "view",
      "type": "function"
    },
    {
      "inputs": [],
      "name": "isRngTimedOut",
      "outputs": [
        {
          "internalType": "bool",
          "name": "",
          "type": "bool"
        }
      ],
      "stateMutability": "view",
      "type": "function"
    },
    {
      "inputs": [],
      "name": "manager",
      "outputs": [
        {
          "internalType": "address",
          "name": "",
          "type": "address"
        }
      ],
      "stateMutability": "view",
      "type": "function"
    },
    {
      "inputs": [],
      "name": "owner",
      "outputs": [
        {
          "internalType": "address",
          "name": "",
          "type": "address"
        }
      ],
      "stateMutability": "view",
      "type": "function"
    },
    {
      "inputs": [
        {
          "internalType": "uint32",
          "name": "_drawId",
          "type": "uint32"
        },
        {
          "internalType": "address[]",
          "name": "_winners",
          "type": "address[]"
        }
      ],
      "name": "payWinners",
      "outputs": [
        {
          "internalType": "bool",
          "name": "",
          "type": "bool"
        }
      ],
      "stateMutability": "nonpayable",
      "type": "function"
    },
    {
      "inputs": [],
      "name": "pendingOwner",
      "outputs": [
        {
          "internalType": "address",
          "name": "",
          "type": "address"
        }
      ],
      "stateMutability": "view",
      "type": "function"
    },
    {
      "inputs": [
        {
          "internalType": "uint32",
          "name": "_drawId",
          "type": "uint32"
        }
      ],
      "name": "processRandomness",
      "outputs": [
        {
          "internalType": "uint256[]",
          "name": "_randomness",
          "type": "uint256[]"
        }
      ],
      "stateMutability": "nonpayable",
      "type": "function"
    },
    {
      "inputs": [],
      "name": "renounceOwnership",
      "outputs": [],
      "stateMutability": "nonpayable",
      "type": "function"
    },
    {
      "inputs": [
        {
          "internalType": "uint32",
          "name": "_drawId",
          "type": "uint32"
        },
        {
          "internalType": "uint256",
          "name": "_picksNumber",
          "type": "uint256"
        },
        {
          "internalType": "bytes",
          "name": "_participantsHash",
          "type": "bytes"
        },
        {
          "internalType": "bool",
          "name": "_isEmptyDraw",
          "type": "bool"
        }
      ],
      "name": "requestRandomness",
      "outputs": [],
      "stateMutability": "nonpayable",
      "type": "function"
    },
    {
      "inputs": [
        {
          "internalType": "uint16[]",
          "name": "_distribution",
          "type": "uint16[]"
        }
      ],
      "name": "setDistribution",
      "outputs": [],
      "stateMutability": "nonpayable",
      "type": "function"
    },
    {
      "inputs": [
        {
          "internalType": "contract IDrawBuffer",
          "name": "_drawBuffer",
          "type": "address"
        }
      ],
      "name": "setDrawBuffer",
      "outputs": [],
      "stateMutability": "nonpayable",
      "type": "function"
    },
    {
      "inputs": [
        {
          "internalType": "address",
          "name": "_newManager",
          "type": "address"
        }
      ],
      "name": "setManager",
      "outputs": [
        {
          "internalType": "bool",
          "name": "",
          "type": "bool"
        }
      ],
      "stateMutability": "nonpayable",
      "type": "function"
    },
    {
      "inputs": [
        {
          "internalType": "contract IPrizeDistributionBuffer",
          "name": "_prizeDistributionBuffer",
          "type": "address"
        }
      ],
      "name": "setPrizeDistributionBuffer",
      "outputs": [],
      "stateMutability": "nonpayable",
      "type": "function"
    },
    {
      "inputs": [
        {
          "internalType": "contract IRNGServiceChainlinkV2",
          "name": "_rngService",
          "type": "address"
        }
      ],
      "name": "setRngService",
      "outputs": [],
      "stateMutability": "nonpayable",
      "type": "function"
    },
    {
      "inputs": [
        {
          "internalType": "uint32",
          "name": "_rngTimeout",
          "type": "uint32"
        }
      ],
      "name": "setRngTimeout",
      "outputs": [],
      "stateMutability": "nonpayable",
      "type": "function"
    },
    {
      "inputs": [
        {
          "internalType": "address",
          "name": "_newOwner",
          "type": "address"
        }
      ],
      "name": "transferOwnership",
      "outputs": [],
      "stateMutability": "nonpayable",
      "type": "function"
    },
    {
      "inputs": [
        {
          "internalType": "contract IERC20Upgradeable",
          "name": "_erc20Token",
          "type": "address"
        },
        {
          "internalType": "address",
          "name": "_to",
          "type": "address"
        },
        {
          "internalType": "uint256",
          "name": "_amount",
          "type": "uint256"
        }
      ],
      "name": "withdrawERC20",
      "outputs": [
        {
          "internalType": "bool",
          "name": "",
          "type": "bool"
        }
      ],
      "stateMutability": "nonpayable",
      "type": "function"
    }
  ],
  "bytecode": "0x60806040523480156200001157600080fd5b506200001c62000022565b620000e4565b600054610100900460ff16156200008f5760405162461bcd60e51b815260206004820152602760248201527f496e697469616c697a61626c653a20636f6e747261637420697320696e697469604482015266616c697a696e6760c81b606482015260840160405180910390fd5b60005460ff9081161015620000e2576000805460ff191660ff9081179091556040519081527f7f26b83ff96e1f2b6a682f133852f6798a09c465da95921460cefb38474024989060200160405180910390a15b565b61389780620000f46000396000f3fe608060405234801561001057600080fd5b506004361061025c5760003560e01c806371bcb50011610145578063ab70d49c116100bd578063e30c39781161008c578063f2fde38b11610071578063f2fde38b14610525578063f56d123314610538578063ffbbd3291461055857600080fd5b8063e30c397814610501578063eb37f5401461051257600080fd5b8063ab70d49c146104ca578063b9189d161461042e578063bd97a252146104dd578063d0ebdbe7146104ee57600080fd5b80637ce52b181161011457806388209a19116100f957806388209a19146104a25780638da5cb5b146104ab5780638e33cffc146104c257600080fd5b80637ce52b181461047e5780637f4296d71461048f57600080fd5b806371bcb5001461043f578063738bbea814610452578063752720431461045a57806378623c001461047657600080fd5b8063481c6a75116101d85780635020ea56116101a7578063571b374d1161018c578063571b374d1461041b5780635c56377e1461042e578063715018a61461043757600080fd5b80635020ea561461036b57806354644bda1461037e57600080fd5b8063481c6a751461033c5780634aba4f6b1461034d5780634e08c6c6146103555780634e71e0c81461036357600080fd5b8063204d20221161022f57806321df0da71161021457806321df0da7146102f35780634019f2d61461031857806344004cc11461032957600080fd5b8063204d2022146102d557806320768fc0146102ea57600080fd5b80630154f2d114610261578063111070e41461027d5780631b5344a2146102995780631cced51b146102c0575b600080fd5b61026a61010081565b6040519081526020015b60405180910390f35b60935463ffffffff1615155b6040519015158152602001610274565b609554640100000000900463ffffffff165b60405163ffffffff9091168152602001610274565b6102c861056b565b6040516102749190612d8a565b6102e86102e3366004612de7565b6105eb565b005b61026a6101f481565b608f546001600160a01b03165b6040516001600160a01b039091168152602001610274565b6090546001600160a01b0316610300565b610289610337366004612e0b565b61065d565b602f546001600160a01b0316610300565b61028961080c565b60955463ffffffff166102ab565b6102e86108a1565b6102e8610379366004612e5e565b61092f565b6103e46040805160608101825260008082526020820181905291810191909152506040805160608101825260935463ffffffff8082168352640100000000820416602083015268010000000000000000900467ffffffffffffffff169181019190915290565b60408051825163ffffffff9081168252602080850151909116908201529181015167ffffffffffffffff1690820152606001610274565b6102e8610429366004612ec7565b610999565b61026a6103e881565b6102e8610a08565b61028961044d366004612f9e565b610a75565b61028961106b565b61046361271081565b60405161ffff9091168152602001610274565b6102e86110d8565b6092546001600160a01b0316610300565b6102e861049d366004612de7565b6111c8565b61026a61271081565b6000546201000090046001600160a01b0316610300565b609454610463565b6102e86104d8366004612de7565b611232565b6091546001600160a01b0316610300565b6102896104fc366004612de7565b61129c565b6001546001600160a01b0316610300565b6102e8610520366004613093565b61130f565b6102e8610533366004612de7565b61170c565b61054b610546366004612e5e565b611840565b6040516102749190613176565b6102e8610566366004613189565b611cb0565b606060948054806020026020016040519081016040528092919081815260200182805480156105e157602002820191906000526020600020906000905b82829054906101000a900461ffff1661ffff16815260200190600201906020826001010492830192600103820291508084116105a85790505b5050505050905090565b6000546001600160a01b03620100009091041633146106515760405162461bcd60e51b815260206004820152601860248201527f4f776e61626c652f63616c6c65722d6e6f742d6f776e6572000000000000000060448201526064015b60405180910390fd5b61065a81611e06565b50565b600080546001600160a01b03620100009091041633146106bf5760405162461bcd60e51b815260206004820152601860248201527f4f776e61626c652f63616c6c65722d6e6f742d6f776e657200000000000000006044820152606401610648565b6001600160a01b03831661073b5760405162461bcd60e51b815260206004820152602b60248201527f5072697a654469737472696275746f722f726563697069656e742d6e6f742d7a60448201527f65726f2d616464726573730000000000000000000000000000000000000000006064820152608401610648565b6001600160a01b0384166107a15760405162461bcd60e51b815260206004820152602760248201527f5072697a654469737472696275746f722f45524332302d6e6f742d7a65726f2d6044820152666164647265737360c81b6064820152608401610648565b6107b56001600160a01b0385168484611ee4565b826001600160a01b0316846001600160a01b03167fbfed55bdcd242e3dd0f60ddd7d1e87c67f61c34cd9527b3e6455d841b1025362846040516107fa91815260200190565b60405180910390a35060019392505050565b6092546093546040517f0902fa8c00000000000000000000000000000000000000000000000000000000815263ffffffff90911660048201526000916001600160a01b031690630902fa8c90602401602060405180830381865afa158015610878573d6000803e3d6000fd5b505050506040513d601f19601f8201168201806040525081019061089c9190613248565b905090565b6001546001600160a01b031633146108fb5760405162461bcd60e51b815260206004820152601f60248201527f4f776e61626c652f63616c6c65722d6e6f742d70656e64696e674f776e6572006044820152606401610648565b600154610910906001600160a01b0316611f69565b6001805473ffffffffffffffffffffffffffffffffffffffff19169055565b6000546001600160a01b03620100009091041633146109905760405162461bcd60e51b815260206004820152601860248201527f4f776e61626c652f63616c6c65722d6e6f742d6f776e657200000000000000006044820152606401610648565b61065a81611fda565b6000546001600160a01b03620100009091041633146109fa5760405162461bcd60e51b815260206004820152601860248201527f4f776e61626c652f63616c6c65722d6e6f742d6f776e657200000000000000006044820152606401610648565b610a0482826120c3565b5050565b6000546001600160a01b0362010000909104163314610a695760405162461bcd60e51b815260206004820152601860248201527f4f776e61626c652f63616c6c65722d6e6f742d6f776e657200000000000000006044820152606401610648565b610a736000611f69565b565b6000610a7f612265565b33610a92602f546001600160a01b031690565b6001600160a01b03161480610ab857506000546001600160a01b03620100009091041633145b610b2a5760405162461bcd60e51b815260206004820152602660248201527f4d616e61676561626c652f63616c6c65722d6e6f742d6d616e616765722d6f7260448201527f2d6f776e657200000000000000000000000000000000000000000000000000006064820152608401610648565b6090546040516383c34aaf60e01b815263ffffffff851660048201526000916001600160a01b0316906383c34aaf90602401600060405180830381865afa158015610b79573d6000803e3d6000fd5b505050506040513d6000823e601f3d908101601f19168201604052610ba1919081019061335f565b9050610bac816122bf565b8061010001518015610bbd57508251155b80610bd85750806101000151158015610bd857506094548351145b610c4a5760405162461bcd60e51b815260206004820152602160248201527f5072697a654469737472696275746f722f6c656e677468732d6d69736d61746360448201527f68000000000000000000000000000000000000000000000000000000000000006064820152608401610648565b60008351600014610d5257608f546040517f70a082310000000000000000000000000000000000000000000000000000000081523060048201526001600160a01b03909116906370a0823190602401602060405180830381865afa158015610cb6573d6000803e3d6000fd5b505050506040513d601f19601f82011682018060405250810190610cda919061347a565b905060008111610d525760405162461bcd60e51b815260206004820152602660248201527f5072697a654469737472696275746f722f7072697a65732d616d6f756e742d6960448201527f732d7a65726f00000000000000000000000000000000000000000000000000006064820152608401610648565b6000845167ffffffffffffffff811115610d6e57610d6e612f09565b604051908082528060200260200182016040528015610d97578160200160208202803683370190505b50905060006094805480602002602001604051908101604052809291908181526020018280548015610e1057602002820191906000526020600020906000905b82829054906101000a900461ffff1661ffff1681526020019060020190602082600101049283019260010382029150808411610dd75790505b5050505050905060005b86518161ffff161015610f535760006001600160a01b0316878261ffff1681518110610e4857610e48613493565b60200260200101516001600160a01b03161415610eb75760405162461bcd60e51b815260206004820152602760248201527f5072697a654469737472696275746f722f77696e6e65722d69732d7a65726f2d6044820152666164647265737360c81b6064820152608401610648565b600061271061ffff16838361ffff1681518110610ed657610ed6613493565b602002602001015161ffff1686610eed91906134bf565b610ef791906134f4565b9050610f20888361ffff1681518110610f1257610f12613493565b602002602001015182612478565b80848361ffff1681518110610f3757610f37613493565b602090810291909101015250610f4c81613508565b9050610e1a565b506090546040517e0d32f300000000000000000000000000000000000000000000000000000000815263ffffffff891660048201526001600160a01b0390911690620d32f390602401600060405180830381600087803b158015610fb657600080fd5b505af1158015610fca573d6000803e3d6000fd5b50506095805490925060009150610fe69063ffffffff1661352a565b91906101000a81548163ffffffff021916908363ffffffff1602179055504263ffffffff168763ffffffff167f846d597602ecc15fc539a0efe17d3ac7f4f9e4fe20398ef507a4445f7c9295f185898860c001518760405161104b9493929190613544565b60405180910390a360019450505050506110656001605d55565b92915050565b60935460009068010000000000000000900467ffffffffffffffff166110915750600090565b60935460955442916110c8916801000000000000000090910467ffffffffffffffff1690640100000000900463ffffffff166135b8565b67ffffffffffffffff1610905090565b6110e061106b565b6111525760405162461bcd60e51b815260206004820152603060248201527f5072697a654469737472696275746f722f72616e646f6d6e6573732d7265717560448201527f6573742d6e6f742d74696d65646f7574000000000000000000000000000000006064820152608401610648565b609380547fffffffffffffffffffffffffffffffff00000000000000000000000000000000811690915560405163ffffffff640100000000830481168083529216919082907f32e259ef92f6ff904f7acbe0a6fc9d74eb7fdd8b6f2589b2335ceb2960e1ea4b9060200160405180910390a25050565b6000546001600160a01b03620100009091041633146112295760405162461bcd60e51b815260206004820152601860248201527f4f776e61626c652f63616c6c65722d6e6f742d6f776e657200000000000000006044820152606401610648565b61065a81612495565b6000546001600160a01b03620100009091041633146112935760405162461bcd60e51b815260206004820152601860248201527f4f776e61626c652f63616c6c65722d6e6f742d6f776e657200000000000000006044820152606401610648565b61065a81612568565b600080546001600160a01b03620100009091041633146112fe5760405162461bcd60e51b815260206004820152601860248201527f4f776e61626c652f63616c6c65722d6e6f742d6f776e657200000000000000006044820152606401610648565b6113078261263f565b90505b919050565b611317612265565b3361132a602f546001600160a01b031690565b6001600160a01b0316146113805760405162461bcd60e51b815260206004820152601d60248201527f4d616e61676561626c652f63616c6c65722d6e6f742d6d616e616765720000006044820152606401610648565b6090546040516383c34aaf60e01b815263ffffffff861660048201526000916001600160a01b0316906383c34aaf90602401600060405180830381865afa1580156113cf573d6000803e3d6000fd5b505050506040513d6000823e601f3d908101601f191682016040526113f7919081019061335f565b9050611402816122bf565b82516114765760405162461bcd60e51b815260206004820152603b60248201527f5072697a654469737472696275746f722f7061727469636970616e74732d686160448201527f73682d63616e2d6e6f742d686176652d7a65726f2d6c656e67746800000000006064820152608401610648565b60935463ffffffff16156114f25760405162461bcd60e51b815260206004820152602d60248201527f5072697a654469737472696275746f722f72616e646f6d6e6573732d616c726560448201527f6164792d726571756573746564000000000000000000000000000000000000006064820152608401610648565b60945460008084611603576092546040517f7705a7f600000000000000000000000000000000000000000000000000000000815263ffffffff851660048201526001600160a01b0390911690637705a7f69060240160408051808303816000875af1158015611565573d6000803e3d6000fd5b505050506040513d601f19601f8201168201806040525081019061158991906135e4565b6093805463ffffffff8481167fffffffffffffffffffffffffffffffffffffffffffffffff00000000000000009092169190911764010000000084831602177fffffffffffffffffffffffffffffffff0000000000000000ffffffffffffffff164291909116680100000000000000000217905590925090505b63ffffffff8216608085015260e0840187905260a084018690528415156101008501526090546040517f6ce5c7420000000000000000000000000000000000000000000000000000000081526001600160a01b0390911690636ce5c7429061166f90879060040161364a565b6020604051808303816000875af115801561168e573d6000803e3d6000fd5b505050506040513d601f19601f820116820180604052508101906116b2919061372b565b5060405163ffffffff848116825280831691848216918b16907f18968cf80359fb56567078d9acb6b31f6530252c58f4516d745d78793d9435379060200160405180910390a4505050506117066001605d55565b50505050565b6000546001600160a01b036201000090910416331461176d5760405162461bcd60e51b815260206004820152601860248201527f4f776e61626c652f63616c6c65722d6e6f742d6f776e657200000000000000006044820152606401610648565b6001600160a01b0381166117e95760405162461bcd60e51b815260206004820152602560248201527f4f776e61626c652f70656e64696e674f776e65722d6e6f742d7a65726f2d616460448201527f64726573730000000000000000000000000000000000000000000000000000006064820152608401610648565b6001805473ffffffffffffffffffffffffffffffffffffffff19166001600160a01b0383169081179091556040517f239a2ddded15777fa246aed5f7e1a9bc69a39d4eb4a397034d1d85766cca7d4c90600090a250565b606061184a612265565b3361185d602f546001600160a01b031690565b6001600160a01b0316146118b35760405162461bcd60e51b815260206004820152601d60248201527f4d616e61676561626c652f63616c6c65722d6e6f742d6d616e616765720000006044820152606401610648565b6090546040516383c34aaf60e01b815263ffffffff841660048201526000916001600160a01b0316906383c34aaf90602401600060405180830381865afa158015611902573d6000803e3d6000fd5b505050506040513d6000823e601f3d908101601f1916820160405261192a919081019061335f565b9050611935816122bf565b60935463ffffffff166119b05760405162461bcd60e51b815260206004820152602c60248201527f5072697a654469737472696275746f722f72616e646f6d6e6573732d69732d6e60448201527f6f742d72657175657374656400000000000000000000000000000000000000006064820152608401610648565b6119b861080c565b611a2a5760405162461bcd60e51b815260206004820152603460248201527f5072697a654469737472696275746f722f72616e646f6d6e6573732d7265717560448201527f6573742d69732d6e6f742d636f6d706c657465640000000000000000000000006064820152608401610648565b6092546093546040517f218cc7a300000000000000000000000000000000000000000000000000000000815263ffffffff90911660048201526001600160a01b039091169063218cc7a390602401600060405180830381865afa158015611a95573d6000803e3d6000fd5b505050506040513d6000823e601f3d908101601f19168201604052611abd9190810190613748565b8051609454919350908114611b3a5760405162461bcd60e51b815260206004820152602160248201527f5072697a654469737472696275746f722f6c656e677468732d6d69736d61746360448201527f68000000000000000000000000000000000000000000000000000000000000006064820152608401610648565b60005b81811015611ba75760e083015115611b97578260e00151848281518110611b6657611b66613493565b6020026020010151611b78919061377d565b848281518110611b8a57611b8a613493565b6020026020010181815250505b611ba081613791565b9050611b3d565b5060c082018390526090546040517f6ce5c7420000000000000000000000000000000000000000000000000000000081526001600160a01b0390911690636ce5c74290611bf890859060040161364a565b6020604051808303816000875af1158015611c17573d6000803e3d6000fd5b505050506040513d601f19601f82011682018060405250810190611c3b919061372b565b50609380547fffffffffffffffffffffffffffffffff0000000000000000000000000000000016905560405163ffffffff8516907fa393ebba18498990eb1cf12f96be6ebee1b4d4a6d5edde6aac4755e0c0fee11190611c9c908690613176565b60405180910390a2505061130a6001605d55565b600054610100900460ff1615808015611cd05750600054600160ff909116105b80611cea5750303b158015611cea575060005460ff166001145b611d5c5760405162461bcd60e51b815260206004820152602e60248201527f496e697469616c697a61626c653a20636f6e747261637420697320616c72656160448201527f647920696e697469616c697a65640000000000000000000000000000000000006064820152608401610648565b600080547fffffffffffffffffffffffffffffffffffffffffffffffffffffffffffffff001660011790558015611d9d576000805461ff0019166101001790555b611da68961272b565b611db58888888888888861279f565b8015611dfb576000805461ff0019169055604051600181527f7f26b83ff96e1f2b6a682f133852f6798a09c465da95921460cefb38474024989060200160405180910390a15b505050505050505050565b6001600160a01b038116611e825760405162461bcd60e51b815260206004820152603b60248201527f5072697a654469737472696275746f722f7072697a652d64697374726962757460448201527f696f6e2d6275666665722d6e6f742d7a65726f2d6164647265737300000000006064820152608401610648565b6091805473ffffffffffffffffffffffffffffffffffffffff19166001600160a01b0383169081179091556040519081527f225a3ab16bd49b364e428f06f203940a490fbfca3056c37c6bb16f1ca726633f906020015b60405180910390a150565b604080516001600160a01b038416602482015260448082018490528251808303909101815260649091019091526020810180517bffffffffffffffffffffffffffffffffffffffffffffffffffffffff167fa9059cbb00000000000000000000000000000000000000000000000000000000179052611f64908490612875565b505050565b600080546001600160a01b03838116620100008181027fffffffffffffffffffff0000000000000000000000000000000000000000ffff851617855560405193049190911692909183917f8be0079c531659141344cd1fd0a4f28419497f9722a3daafe3b4186f6b6457e091a35050565b603c8163ffffffff16116120565760405162461bcd60e51b815260206004820152602a60248201527f5072697a654469737472696275746f722f726e672d74696d656f75742d67742d60448201527f36302d7365636f6e6473000000000000000000000000000000000000000000006064820152608401610648565b609580547fffffffffffffffffffffffffffffffffffffffffffffffff00000000ffffffff1664010000000063ffffffff8416908102919091179091556040519081527f521671714dd36d366adf3fe2efec91d3f58a3131aad68e268821d8144b5d084590602001611ed9565b6101f481111561213b5760405162461bcd60e51b815260206004820152602360248201527f5072697a654469737472696275746f722f77726f6e672d61727261792d6c656e60448201527f67746800000000000000000000000000000000000000000000000000000000006064820152608401610648565b6000805b61ffff81168311156121925783838261ffff1681811061216157612161613493565b905060200201602081019061217691906137be565b61218090836137d9565b915061218b81613508565b905061213f565b5061ffff81166127101461220e5760405162461bcd60e51b815260206004820152603560248201527f5072697a654469737472696275746f722f646973747269627574696f6e2d736860448201527f6f756c642d62652d657175616c2d746f2d3130302500000000000000000000006064820152608401610648565b61221a60946000612ca3565b61222660948484612cc8565b507f63ccd6f5fe1549537158b88c53f22678c0627e7e9c649b49a4e70879ed79f06683836040516122589291906137f6565b60405180910390a1505050565b6002605d5414156122b85760405162461bcd60e51b815260206004820152601f60248201527f5265656e7472616e637947756172643a207265656e7472616e742063616c6c006044820152606401610648565b6002605d55565b609554815163ffffffff9081169116146123675760405162461bcd60e51b815260206004820152604260248201527f5072697a654469737472696275746f722f647261772d69642d73686f756c642d60448201527f62652d7468652d73616d652d61732d6c6173742d756e706169642d647261772d60648201527f6964000000000000000000000000000000000000000000000000000000000000608482015260a401610648565b806060015163ffffffff16816040015161238191906135b8565b67ffffffffffffffff1642116123ff5760405162461bcd60e51b815260206004820152602960248201527f5072697a654469737472696275746f722f647261772d69732d6e6f742d66696e60448201527f69736865642d79657400000000000000000000000000000000000000000000006064820152608401610648565b8061012001511561065a5760405162461bcd60e51b815260206004820152602560248201527f5072697a654469737472696275746f722f647261772d69732d616c726561647960448201527f2d706169640000000000000000000000000000000000000000000000000000006064820152608401610648565b8015610a0457608f54610a04906001600160a01b03168383611ee4565b6001600160a01b0381166125115760405162461bcd60e51b815260206004820152602d60248201527f5072697a654469737472696275746f722f726e672d736572766963652d6e6f7460448201527f2d7a65726f2d61646472657373000000000000000000000000000000000000006064820152608401610648565b6092805473ffffffffffffffffffffffffffffffffffffffff19166001600160a01b0383169081179091556040517f7b31c6d085cce5d1638ae079d38e5e7b260e1143c8bb2df487cd65d8abe194f990600090a250565b6001600160a01b0381166125e45760405162461bcd60e51b815260206004820152602d60248201527f5072697a654469737472696275746f722f647261772d6275666665722d6e6f7460448201527f2d7a65726f2d61646472657373000000000000000000000000000000000000006064820152608401610648565b6090805473ffffffffffffffffffffffffffffffffffffffff19166001600160a01b0383169081179091556040519081527f3c85a96e0b8bd6c6ffe9628defa8e79bb2ad889667a58b22bd9ed598fdaabf2e90602001611ed9565b602f546000906001600160a01b039081169083168114156126c85760405162461bcd60e51b815260206004820152602360248201527f4d616e61676561626c652f6578697374696e672d6d616e616765722d6164647260448201527f65737300000000000000000000000000000000000000000000000000000000006064820152608401610648565b602f805473ffffffffffffffffffffffffffffffffffffffff19166001600160a01b0385811691821790925560405190918316907f9cb45c728de594dab506a1f1a8554e24c8eeaf983618d5ec5dd7bc6f3c49feee90600090a350600192915050565b600054610100900460ff166127965760405162461bcd60e51b815260206004820152602b60248201527f496e697469616c697a61626c653a20636f6e7472616374206973206e6f74206960448201526a6e697469616c697a696e6760a81b6064820152608401610648565b61065a8161295a565b600054610100900460ff1661280a5760405162461bcd60e51b815260206004820152602b60248201527f496e697469616c697a61626c653a20636f6e7472616374206973206e6f74206960448201526a6e697469616c697a696e6760a81b6064820152608401610648565b612813876129ce565b61281c86612568565b61282585611e06565b61282e84612495565b61283883836120c3565b61284181611fda565b5050609580547fffffffffffffffffffffffffffffffffffffffffffffffffffffffff000000001660011790555050505050565b60006128ca826040518060400160405280602081526020017f5361666545524332303a206c6f772d6c6576656c2063616c6c206661696c6564815250856001600160a01b0316612a8b9092919063ffffffff16565b805190915015611f6457808060200190518101906128e89190613248565b611f645760405162461bcd60e51b815260206004820152602a60248201527f5361666545524332303a204552433230206f7065726174696f6e20646964206e60448201527f6f742073756363656564000000000000000000000000000000000000000000006064820152608401610648565b600054610100900460ff166129c55760405162461bcd60e51b815260206004820152602b60248201527f496e697469616c697a61626c653a20636f6e7472616374206973206e6f74206960448201526a6e697469616c697a696e6760a81b6064820152608401610648565b61065a81612aa2565b6001600160a01b038116612a345760405162461bcd60e51b815260206004820152602760248201527f5072697a654469737472696275746f722f746f6b656e2d6e6f742d7a65726f2d6044820152666164647265737360c81b6064820152608401610648565b608f805473ffffffffffffffffffffffffffffffffffffffff19166001600160a01b0383169081179091556040517fa07c91c183e42229e705a9795a1c06d76528b673788b849597364528c96eefb790600090a250565b6060612a9a8484600085612b16565b949350505050565b600054610100900460ff16612b0d5760405162461bcd60e51b815260206004820152602b60248201527f496e697469616c697a61626c653a20636f6e7472616374206973206e6f74206960448201526a6e697469616c697a696e6760a81b6064820152608401610648565b61065a81611f69565b606082471015612b8e5760405162461bcd60e51b815260206004820152602660248201527f416464726573733a20696e73756666696369656e742062616c616e636520666f60448201527f722063616c6c00000000000000000000000000000000000000000000000000006064820152608401610648565b600080866001600160a01b03168587604051612baa9190613832565b60006040518083038185875af1925050503d8060008114612be7576040519150601f19603f3d011682016040523d82523d6000602084013e612bec565b606091505b5091509150612bfd87838387612c08565b979650505050505050565b60608315612c74578251612c6d576001600160a01b0385163b612c6d5760405162461bcd60e51b815260206004820152601d60248201527f416464726573733a2063616c6c20746f206e6f6e2d636f6e74726163740000006044820152606401610648565b5081612a9a565b612a9a8383815115612c895781518083602001fd5b8060405162461bcd60e51b8152600401610648919061384e565b50805460008255600f01601090049060005260206000209081019061065a9190612d75565b82805482825590600052602060002090600f01601090048101928215612d655791602002820160005b83821115612d3557833561ffff1683826101000a81548161ffff021916908361ffff1602179055509260200192600201602081600101049283019260010302612cf1565b8015612d635782816101000a81549061ffff0219169055600201602081600101049283019260010302612d35565b505b50612d71929150612d75565b5090565b5b80821115612d715760008155600101612d76565b6020808252825182820181905260009190848201906040850190845b81811015612dc657835161ffff1683529284019291840191600101612da6565b50909695505050505050565b6001600160a01b038116811461065a57600080fd5b600060208284031215612df957600080fd5b8135612e0481612dd2565b9392505050565b600080600060608486031215612e2057600080fd5b8335612e2b81612dd2565b92506020840135612e3b81612dd2565b929592945050506040919091013590565b63ffffffff8116811461065a57600080fd5b600060208284031215612e7057600080fd5b8135612e0481612e4c565b60008083601f840112612e8d57600080fd5b50813567ffffffffffffffff811115612ea557600080fd5b6020830191508360208260051b8501011115612ec057600080fd5b9250929050565b60008060208385031215612eda57600080fd5b823567ffffffffffffffff811115612ef157600080fd5b612efd85828601612e7b565b90969095509350505050565b634e487b7160e01b600052604160045260246000fd5b604051610140810167ffffffffffffffff81118282101715612f4357612f43612f09565b60405290565b604051601f8201601f1916810167ffffffffffffffff81118282101715612f7257612f72612f09565b604052919050565b600067ffffffffffffffff821115612f9457612f94612f09565b5060051b60200190565b60008060408385031215612fb157600080fd5b8235612fbc81612e4c565b915060208381013567ffffffffffffffff811115612fd957600080fd5b8401601f81018613612fea57600080fd5b8035612ffd612ff882612f7a565b612f49565b81815260059190911b8201830190838101908883111561301c57600080fd5b928401925b8284101561304357833561303481612dd2565b82529284019290840190613021565b80955050505050509250929050565b600067ffffffffffffffff82111561306c5761306c612f09565b50601f01601f191660200190565b801515811461065a57600080fd5b803561130a8161307a565b600080600080608085870312156130a957600080fd5b84356130b481612e4c565b935060208501359250604085013567ffffffffffffffff8111156130d757600080fd5b8501601f810187136130e857600080fd5b80356130f6612ff882613052565b81815288602083850101111561310b57600080fd5b8160208401602083013760006020838301015280945050505061313060608601613088565b905092959194509250565b600081518084526020808501945080840160005b8381101561316b5781518752958201959082019060010161314f565b509495945050505050565b602081526000612e04602083018461313b565b60008060008060008060008060e0898b0312156131a557600080fd5b88356131b081612dd2565b975060208901356131c081612dd2565b965060408901356131d081612dd2565b955060608901356131e081612dd2565b945060808901356131f081612dd2565b935060a089013567ffffffffffffffff81111561320c57600080fd5b6132188b828c01612e7b565b90945092505060c089013561322c81612e4c565b809150509295985092959890939650565b805161130a8161307a565b60006020828403121561325a57600080fd5b8151612e048161307a565b805161130a81612e4c565b805167ffffffffffffffff8116811461130a57600080fd5b60005b838110156132a357818101518382015260200161328b565b838111156117065750506000910152565b600082601f8301126132c557600080fd5b81516132d3612ff882613052565b8181528460208386010111156132e857600080fd5b612a9a826020830160208701613288565b600082601f83011261330a57600080fd5b8151602061331a612ff883612f7a565b82815260059290921b8401810191818101908684111561333957600080fd5b8286015b84811015613354578051835291830191830161333d565b509695505050505050565b60006020828403121561337157600080fd5b815167ffffffffffffffff8082111561338957600080fd5b90830190610140828603121561339e57600080fd5b6133a6612f1f565b6133af83613265565b81526133bd60208401613270565b60208201526133ce60408401613270565b60408201526133df60608401613265565b60608201526133f060808401613265565b608082015260a08301518281111561340757600080fd5b613413878286016132b4565b60a08301525060c08301518281111561342b57600080fd5b613437878286016132f9565b60c08301525060e083015160e0820152610100915061345782840161323d565b82820152610120915061346b82840161323d565b91810191909152949350505050565b60006020828403121561348c57600080fd5b5051919050565b634e487b7160e01b600052603260045260246000fd5b634e487b7160e01b600052601160045260246000fd5b60008160001904831182151516156134d9576134d96134a9565b500290565b634e487b7160e01b600052601260045260246000fd5b600082613503576135036134de565b500490565b600061ffff80831681811415613520576135206134a9565b6001019392505050565b600063ffffffff80831681811415613520576135206134a9565b600060808201868352602060808185015281875180845260a086019150828901935060005b8181101561358e5784516001600160a01b031683529383019391830191600101613569565b505084810360408601526135a2818861313b565b925050508281036060840152612bfd818561313b565b600067ffffffffffffffff8083168185168083038211156135db576135db6134a9565b01949350505050565b600080604083850312156135f757600080fd5b825161360281612e4c565b602084015190925061361381612e4c565b809150509250929050565b60008151808452613636816020860160208601613288565b601f01601f19169290920160200192915050565b6020815261366160208201835163ffffffff169052565b6000602083015161367e604084018267ffffffffffffffff169052565b50604083015167ffffffffffffffff8116606084015250606083015163ffffffff8116608084015250608083015163ffffffff811660a08401525060a08301516101408060c08501526136d561016085018361361e565b915060c0850151601f198584030160e08601526136f2838261313b565b92505060e08501516101008181870152808701519150506101206137198187018315159052565b90950151151593019290925250919050565b60006020828403121561373d57600080fd5b8151612e0481612e4c565b60006020828403121561375a57600080fd5b815167ffffffffffffffff81111561377157600080fd5b612a9a848285016132f9565b60008261378c5761378c6134de565b500690565b60006000198214156137a5576137a56134a9565b5060010190565b803561ffff8116811461130a57600080fd5b6000602082840312156137d057600080fd5b612e04826137ac565b600061ffff8083168185168083038211156135db576135db6134a9565b60208082528181018390526000908460408401835b868110156133545761ffff61381f846137ac565b168252918301919083019060010161380b565b60008251613844818460208701613288565b9190910192915050565b602081526000612e04602083018461361e56fea264697066735822122022f8af7c9f3db156bc0d74bfc06e5479422abf72bbd6f1863ffa2d5bcb92e1b764736f6c634300080a0033",
  "linkReferences": {},
  "deployedLinkReferences": {}
}